{
  "_format": "hh-sol-artifact-1",
  "contractName": "WavePortal",
  "sourceName": "contracts/WavePortal.sol",
  "abi": [
    {
      "inputs": [],
      "stateMutability": "payable",
      "type": "constructor"
    },
    {
      "anonymous": false,
      "inputs": [
        {
          "indexed": true,
          "internalType": "address",
          "name": "from",
          "type": "address"
        },
        {
          "indexed": false,
          "internalType": "uint256",
          "name": "timestamp",
          "type": "uint256"
        },
        {
          "indexed": false,
          "internalType": "string",
          "name": "message",
          "type": "string"
        },
        {
          "indexed": false,
          "internalType": "bool",
          "name": "won",
          "type": "bool"
        }
      ],
      "name": "newWave",
      "type": "event"
    },
    {
      "inputs": [],
      "name": "getAllWaves",
      "outputs": [
        {
          "components": [
            {
              "internalType": "address",
              "name": "waver",
              "type": "address"
            },
            {
              "internalType": "string",
              "name": "message",
              "type": "string"
            },
            {
              "internalType": "uint256",
              "name": "timestamp",
              "type": "uint256"
            },
            {
              "internalType": "bool",
              "name": "won",
              "type": "bool"
            }
          ],
          "internalType": "struct WavePortal.Wave[]",
          "name": "",
          "type": "tuple[]"
        }
      ],
      "stateMutability": "view",
      "type": "function"
    },
    {
      "inputs": [],
      "name": "getTotalWaves",
      "outputs": [
        {
          "internalType": "uint256",
          "name": "",
          "type": "uint256"
        }
      ],
      "stateMutability": "view",
      "type": "function"
    },
    {
      "inputs": [
        {
          "internalType": "address",
          "name": "",
          "type": "address"
        }
      ],
      "name": "lastWavedAt",
      "outputs": [
        {
          "internalType": "uint256",
          "name": "",
          "type": "uint256"
        }
      ],
      "stateMutability": "view",
      "type": "function"
    },
    {
      "inputs": [
        {
          "internalType": "string",
          "name": "_message",
          "type": "string"
        }
      ],
      "name": "wave",
      "outputs": [],
      "stateMutability": "nonpayable",
      "type": "function"
    }
  ],
  "bytecode": "0x60806040526200004f6040518060400160405280601c81526020017f48656c6c6f2066726f6d206120736d61727420636f6e74726163743f000000008152506200005560201b620004451760201c565b620001e9565b620000f5816040516024016200006c919062000162565b6040516020818303038152906040527f41304fac000000000000000000000000000000000000000000000000000000007bffffffffffffffffffffffffffffffffffffffffffffffffffffffff19166020820180517bffffffffffffffffffffffffffffffffffffffffffffffffffffffff8381831617835250505050620000f860201b60201c565b50565b60008151905060006a636f6e736f6c652e6c6f679050602083016000808483855afa5050505050565b60006200012e8262000186565b6200013a818562000191565b93506200014c818560208601620001a2565b6200015781620001d8565b840191505092915050565b600060208201905081810360008301526200017e818462000121565b905092915050565b600081519050919050565b600082825260208201905092915050565b60005b83811015620001c2578082015181840152602081019050620001a5565b83811115620001d2576000848401525b50505050565b6000601f19601f8301169050919050565b6110e780620001f96000396000f3fe608060405234801561001057600080fd5b506004361061004c5760003560e01c8063449d46c0146100515780639a2cdc081461006d578063a42a46631461008b578063bd43a908146100bb575b600080fd5b61006b60048036038101906100669190610a1c565b6100d9565b005b610075610270565b6040516100829190610d36565b60405180910390f35b6100a560048036038101906100a091906109f3565b6102c1565b6040516100b29190610d36565b60405180910390f35b6100c36102d9565b6040516100d09190610c4d565b60405180910390f35b6101196040518060400160405280601181526020017f2573206a757374207761766564210a257300000000000000000000000000000081525033836104de565b60006101243361057d565b9050600060405180608001604052803373ffffffffffffffffffffffffffffffffffffffff168152602001848152602001428152602001831515815250908060018154018082558091505060019003906000526020600020906004020160009091909190915060008201518160000160006101000a81548173ffffffffffffffffffffffffffffffffffffffff021916908373ffffffffffffffffffffffffffffffffffffffff16021790555060208201518160010190805190602001906101ed9291906108d3565b506040820151816002015560608201518160030160006101000a81548160ff02191690831515021790555050503373ffffffffffffffffffffffffffffffffffffffff167f883380782588c54d0f3fd936dbef11de42a03640b1f57ce75f91e1c5f55b329b42848460405161026493929190610d51565b60405180910390a25050565b60006102b66040518060400160405280601681526020017f5765206861766520256420746f74616c20776176657300000000000000000000815250600080549050610772565b600080549050905090565b60016020528060005260406000206000915090505481565b60606000805480602002602001604051908101604052809291908181526020016000905b8282101561043c57838290600052602060002090600402016040518060800160405290816000820160009054906101000a900473ffffffffffffffffffffffffffffffffffffffff1673ffffffffffffffffffffffffffffffffffffffff1673ffffffffffffffffffffffffffffffffffffffff16815260200160018201805461038690610f36565b80601f01602080910402602001604051908101604052809291908181526020018280546103b290610f36565b80156103ff5780601f106103d4576101008083540402835291602001916103ff565b820191906000526020600020905b8154815290600101906020018083116103e257829003601f168201915b50505050508152602001600282015481526020016003820160009054906101000a900460ff161515151581525050815260200190600101906102fd565b50505050905090565b6104db816040516024016104599190610c6f565b6040516020818303038152906040527f41304fac000000000000000000000000000000000000000000000000000000007bffffffffffffffffffffffffffffffffffffffffffffffffffffffff19166020820180517bffffffffffffffffffffffffffffffffffffffffffffffffffffffff838183161783525050505061080e565b50565b6105788383836040516024016104f693929190610cc1565b6040516020818303038152906040527fe0e9ad4f000000000000000000000000000000000000000000000000000000007bffffffffffffffffffffffffffffffffffffffffffffffffffffffff19166020820180517bffffffffffffffffffffffffffffffffffffffffffffffffffffffff838183161783525050505061080e565b505050565b600042610384600160008573ffffffffffffffffffffffffffffffffffffffff1673ffffffffffffffffffffffffffffffffffffffff168152602001908152602001600020546105cd9190610e56565b106105db576000905061076d565b42600160008473ffffffffffffffffffffffffffffffffffffffff1673ffffffffffffffffffffffffffffffffffffffff16815260200190815260200160002081905550600060025442446106309190610e56565b61063a9190610e56565b60405160200161064a9190610d36565b6040516020818303038152906040528051906020012060001c9050806002819055506000600a8261067b9190610f99565b1461068a57600091505061076d565b6106c96040518060400160405280600781526020017f257320776f6e210000000000000000000000000000000000000000000000000081525033610837565b600066038d7ea4c680009050478111156106e85760009250505061076d565b60003373ffffffffffffffffffffffffffffffffffffffff168260405161070e90610c38565b60006040518083038185875af1925050503d806000811461074b576040519150601f19603f3d011682016040523d82523d6000602084013e610750565b606091505b5050905080610765576000935050505061076d565b600193505050505b919050565b61080a8282604051602401610788929190610d06565b6040516020818303038152906040527f9710a9d0000000000000000000000000000000000000000000000000000000007bffffffffffffffffffffffffffffffffffffffffffffffffffffffff19166020820180517bffffffffffffffffffffffffffffffffffffffffffffffffffffffff838183161783525050505061080e565b5050565b60008151905060006a636f6e736f6c652e6c6f679050602083016000808483855afa5050505050565b6108cf828260405160240161084d929190610c91565b6040516020818303038152906040527f319af333000000000000000000000000000000000000000000000000000000007bffffffffffffffffffffffffffffffffffffffffffffffffffffffff19166020820180517bffffffffffffffffffffffffffffffffffffffffffffffffffffffff838183161783525050505061080e565b5050565b8280546108df90610f36565b90600052602060002090601f0160209004810192826109015760008555610948565b82601f1061091a57805160ff1916838001178555610948565b82800160010185558215610948579182015b8281111561094757825182559160200191906001019061092c565b5b5090506109559190610959565b5090565b5b8082111561097257600081600090555060010161095a565b5090565b600061098961098484610db4565b610d8f565b9050828152602081018484840111156109a157600080fd5b6109ac848285610ef4565b509392505050565b6000813590506109c38161109a565b92915050565b600082601f8301126109da57600080fd5b81356109ea848260208601610976565b91505092915050565b600060208284031215610a0557600080fd5b6000610a13848285016109b4565b91505092915050565b600060208284031215610a2e57600080fd5b600082013567ffffffffffffffff811115610a4857600080fd5b610a54848285016109c9565b91505092915050565b6000610a698383610bb7565b905092915050565b610a7a81610eac565b82525050565b610a8981610eac565b82525050565b6000610a9a82610df5565b610aa48185610e18565b935083602082028501610ab685610de5565b8060005b85811015610af25784840389528151610ad38582610a5d565b9450610ade83610e0b565b925060208a01995050600181019050610aba565b50829750879550505050505092915050565b610b0d81610ebe565b82525050565b610b1c81610ebe565b82525050565b6000610b2d82610e00565b610b378185610e34565b9350610b47818560208601610f03565b610b5081611086565b840191505092915050565b6000610b6682610e00565b610b708185610e45565b9350610b80818560208601610f03565b610b8981611086565b840191505092915050565b6000610ba1600083610e29565b9150610bac82611097565b600082019050919050565b6000608083016000830151610bcf6000860182610a71565b5060208301518482036020860152610be78282610b22565b9150506040830151610bfc6040860182610c1a565b506060830151610c0f6060860182610b04565b508091505092915050565b610c2381610eea565b82525050565b610c3281610eea565b82525050565b6000610c4382610b94565b9150819050919050565b60006020820190508181036000830152610c678184610a8f565b905092915050565b60006020820190508181036000830152610c898184610b5b565b905092915050565b60006040820190508181036000830152610cab8185610b5b565b9050610cba6020830184610a80565b9392505050565b60006060820190508181036000830152610cdb8186610b5b565b9050610cea6020830185610a80565b8181036040830152610cfc8184610b5b565b9050949350505050565b60006040820190508181036000830152610d208185610b5b565b9050610d2f6020830184610c29565b9392505050565b6000602082019050610d4b6000830184610c29565b92915050565b6000606082019050610d666000830186610c29565b8181036020830152610d788185610b5b565b9050610d876040830184610b13565b949350505050565b6000610d99610daa565b9050610da58282610f68565b919050565b6000604051905090565b600067ffffffffffffffff821115610dcf57610dce611057565b5b610dd882611086565b9050602081019050919050565b6000819050602082019050919050565b600081519050919050565b600081519050919050565b6000602082019050919050565b600082825260208201905092915050565b600081905092915050565b600082825260208201905092915050565b600082825260208201905092915050565b6000610e6182610eea565b9150610e6c83610eea565b9250827fffffffffffffffffffffffffffffffffffffffffffffffffffffffffffffffff03821115610ea157610ea0610fca565b5b828201905092915050565b6000610eb782610eca565b9050919050565b60008115159050919050565b600073ffffffffffffffffffffffffffffffffffffffff82169050919050565b6000819050919050565b82818337600083830152505050565b60005b83811015610f21578082015181840152602081019050610f06565b83811115610f30576000848401525b50505050565b60006002820490506001821680610f4e57607f821691505b60208210811415610f6257610f61611028565b5b50919050565b610f7182611086565b810181811067ffffffffffffffff82111715610f9057610f8f611057565b5b80604052505050565b6000610fa482610eea565b9150610faf83610eea565b925082610fbf57610fbe610ff9565b5b828206905092915050565b7f4e487b7100000000000000000000000000000000000000000000000000000000600052601160045260246000fd5b7f4e487b7100000000000000000000000000000000000000000000000000000000600052601260045260246000fd5b7f4e487b7100000000000000000000000000000000000000000000000000000000600052602260045260246000fd5b7f4e487b7100000000000000000000000000000000000000000000000000000000600052604160045260246000fd5b6000601f19601f8301169050919050565b50565b6110a381610eac565b81146110ae57600080fd5b5056fea26469706673582212209a5be662e553ee971d31c95a0af4ea8d425b412648fd83d0f00bee1ae96d246c64736f6c63430008040033",
  "linkReferences": {},
  "deployedLinkReferences": {}
}